:100000000C9482000C94FA140C9427150C94AA00FA
:100010000C94AA000C94AA000C94AA000C94AA00B8
:100020000C94AA000C94AA000C94AA000C94AA00A8
:100030000C94AA000C94AA000C94AA000C94AA0098
:100040000C9454150C94AA000C9495180C94C71891
:100050000C94AA000C94AA000C94AA000C94AA0078
:100060000C9456100C94AA00240533053F054E0548
:100070005E057F059505084AD73B3BCE016E84BCE3
:10008000BFFDC12F3D6C74319ABD56833DDA3D00F2
:10009000C77F11BED9E4BB4C3E916BAAAABE00003B
:1000A00000803F0000000008000201000003040778
:1000B0000000000000000000010204081020408041
:1000C00001020408102001020408102004040404A2
:1000D00004040404020202020202030303030303F2
:1000E0000000000023002600290000000000250079
:1000F00028002B0000000000240027002A009B029B
:10010000740FF71811241FBECFEFD8E0DEBFCDBFAC
:1001100011E0A0E0B1E0E4ECF9E302C005900D923B
:10012000A436B107D9F724E0A4E6B1E001C01D92DE
:10013000A339B207E1F710E0C4E0D1E004C0229790
:10014000FE010E94B91CCE3FD107C9F70E943B199E
:100150000C94E01C0C940000DC01ED91FC910190EA
:10016000F081E02D09942F923F924F925F926F920F
:100170007F928F929F92AF92BF92CF92DF92EF9237
:10018000FF920F931F93CF93DF9300D000D0CDB792
:10019000DEB75C01DC01ED91FC91369700811181A5
:1001A000080F191F85EC9DE9ACE1B1E8F8018383E4
:1001B0009483A583B6838091E0039091E103069632
:1001C0009C838B8343E0842E912C8091E20390E00A
:1001D000D801881699060CF078C013962D913D91A0
:1001E0004D915C91169763E971E080E091E00E9487
:1001F000661C6B017C01EB81FC81608171811F01B8
:10020000F4E02F1A3108D1012D913C9180E090E06B
:1002100029833A830E941E1B2B013C0129813A81CC
:10022000B90180E090E00E941E1B2DEC3CEC4CE4F8
:100230005FE30E94001C9B01AC01C301B2010E945C
:10024000811A87FD2DC0F10160817181AB81BC8174
:100250002D903C9080E090E00E941E1B2B013C0101
:10026000B10180E090E00E941E1B2DEC3CEC4CE4C0
:100270005FE30E94001C9B01AC01C301B2010E941C
:10028000811A992787FD9095A92FB92F8827B7FD47
:1002900083959927AA27BB270196A11DB11D03C0ED
:1002A00080E090E0DC01C826D926EA26FB26F8018A
:1002B000C382D482E582F682FFEF8F1A9F0A8B8178
:1002C0009C8102969C838B8380CF12961C922091F6
:1002D000E203D501ED91FC9136970190F081E02D7C
:1002E000EA0DFB1D30E0C901039797FD0196959536
:1002F0008795818781E00F900F900F900F90DF918D
:10030000CF911F910F91FF90EF90DF90CF90BF9012
:10031000AF909F908F907F906F905F904F903F90A5
:100320002F900895CF92DF92EF92FF928091270253
:10033000882359F1823009F0ABC08BEE91E00E9426
:100340001F0D8BEE91E00E94700B60934102709341
:100350004202809343029093440289E791E00E9415
:10036000B30760913D0270913E0280913F029091EF
:1003700040020E94ED1A40E050E082E192E0FF90DE
:10038000EF90DF90CF900C94DD118BEE91E00E9406
:100390001F0D8BEE91E00E94700B6B017C0160934E
:1003A0004102709342028093430290934402209151
:1003B000390230913A0240913B0250913C020E9436
:1003C000F51B1816D4F520E030E040EA51E4C701EF
:1003D000B6010E94F51B181674F440E050E06FEF70
:1003E00070E082E192E00E94DD1168EC70E080E054
:1003F00090E00E94CD1589E791E00E94B3076091DB
:100400003D0270913E0280913F02909140020E9415
:10041000ED1A40E050E082E192E00E94DD110E947E
:100420009E15609330027093310280933202909354
:10043000330281E0809334022BC080912E02909190
:100440002F02892B41F440E050E060E070E082E14F
:1004500092E00E94DD110E949E15C0903002D09063
:100460003102E0903202F09033026C197D098E095E
:100470009F09C0900401D0900501EE24D7FCE094C0
:10048000FE2CC616D706E806F90610F410923402C0
:10049000FF90EF90DF90CF9008950F931F9300E0AF
:1004A00010E020E83FE340E050E0BA0182EB91E049
:1004B0000E94D40900E010E0980140E050E060E8BC
:1004C0007FE382EB91E00E94D40900E010E02FE787
:1004D00033E440E050E06FE773EC82EB91E00E9480
:1004E000D4091F910F9108950F931F9300E010E01E
:1004F00020E83FE340E050E0BA0189E791E00E9444
:10050000D40900E010E0980140E050E060E87FE3AB
:1005100089E791E00E94D40900E010E02FE733E47E
:1005200040E050E06FE773EC89E791E00E94D40966
:100530001F910F910895AF92BF92CF92DF92EF92E9
:10054000FF920F931F9382E192E00E9483118BEE42
:1005500091E00E94600B1F921F9280E48F931F9284
:100560001F921F92A12CB12C50E4C52EDC2CE12C43
:10057000F12C00E711E428E232E045E452E069E4BE
:1005800072E082EB91E00E94EC0AA0900601B0902C
:100590000701C0900801D0900901E0900A01F09095
:1005A0000B0100910C0110910D011F921F9280917F
:1005B00038028F93809137028F93809136028F9308
:1005C000809135028F9329E332E04DE352E061E4FC
:1005D00072E089E791E00E94EC0A62E084E791E032
:1005E0000E94871388E691E00E94F9138EE291E061
:1005F000909367018093660184E391E09093690191
:10060000809368018DB79EB70C960FB6F8949EBF85
:100610000FBE8DBF1F910F91FF90EF90DF90CF9095
:10062000BF90AF900895CF92DF92EF92FF920F9319
:100630001F9384E791E00E945C1376E0C72ED12CD3
:10064000E4E0EE2EF12C05E010E02BE030E049E094
:1006500050E06AE070E082E192E00E94841168E676
:1006600070E08BEE91E00E94870B62E370E08BEE0E
:1006700091E00E94FB0B60E08BEE91E00E94610B29
:1006800061E08BEE91E00E94640B60E08BEE91E004
:100690000E94670B4AE959E969E57FE38BEE91E037
:1006A0000E94810B64E170E08BEE91E00E947C0B74
:1006B00080E090E0A0ECB0EC8093390290933A0295
:1006C000A0933B02B0933C021092490210924A025E
:1006D00010924B0210924C02109245021092460268
:1006E000109247021092480261E070E082EB91E0C4
:1006F0000E949A0A00E010E02FE733E440E050E067
:100700006FE773EC82EB91E00E94D4096EE170E038
:1007100082EB91E00E94860961E070E089E791E058
:100720000E949A0A00E010E02FE733E440E050E036
:100730006FE773EC89E791E00E94D40961E070E013
:1007400089E791E00E94B00A6EE170E089E791E0EC
:100750000E94860926E040E855E260E070E086EFFE
:1007600093E01F910F91FF90EF90DF90CF900C944A
:10077000331884E791E00E94AC13882309F4ECC09D
:10078000E0916601F09167013897808191818A59E3
:100790009E4F0E94B30080916B0190916C01A091DB
:1007A0006D01B0916E01883225E3920721EFA20717
:1007B0002AE8B20709F47BC0B8F5883E2EE192071B
:1007C00020E8A20723E5B20709F481C078F4843C4D
:1007D0009940A043B74209F0BBC08BEE91E00E9464
:1007E000760B80E090E0A4EBB2EC9AC082302EE36E
:1007F00092072AE1A20723E7B20709F489C08238E9
:100800009D49AC48B54709F0A3C020E030E040EA7C
:1008100050E4609128027091290280912A029091FF
:100820002B020E94BA1961C0863426EB92072FEF83
:10083000A20724ECB20709F443C010F5823626E67D
:10084000920728E5A2072DEAB20709F45AC08434BA
:10085000904FAB46B24C09F07BC081E090E09093A2
:100860002F0280932E0210922802109229021092D9
:100870002A0210922B028BEE91E00E94760B68C048
:1008800088322AED92072DE3A20721EEB207B1F1DB
:1008900088389249A949B54F09F05AC08BEE91E0CA
:1008A0000E94760B80E090E0A4EBB2E439C0109295
:1008B0002F0210922E0210922D0210922C0248C08C
:1008C00062E370E08BEE91E00E94FB0B41C020E000
:1008D00030E040EA50E46091280270912902809152
:1008E0002A0290912B020E94BB19609328027093F8
:1008F000290280932A0290932B022AC088E790E075
:1009000002C08EEB90E090932D0280932C0220C0C9
:100910008BEE91E00E94760B80E090E0A4E3B3E4DC
:100920008093280290932902A0932A02B0932B026D
:1009300083E090E090932F0280932E020E949E15F8
:1009400060932202709323028093240290932502E5
:1009500084E791E00C945C130895FF920F931F932A
:10096000CF93DF9300D0CDB7DEB7082F162FF72E29
:10097000682F86EF93E049835A830E94CE1760E088
:1009800070E086EF93E00E94AC00602F86EF93E06A
:100990000E94CE1760E070E086EF93E00E94AC000A
:1009A0004981642F86EF93E00E94CE175A81652F0C
:1009B00086EF93E00E94CE17612F86EF93E00E94AE
:1009C000CE176F2D86EF93E00F900F90DF91CF91B0
:1009D0001F910F91FF900C94CE178F929F92AF9220
:1009E000BF92CF92DF92EF92FF920F931F93CF931C
:1009F000DF9399249394F2E08F2EC1E0D0E0A3E03E
:100A0000AA2EB12C86EF93E00E945017892B09F48F
:100A100042C286EF93E00E946917482F4770182F53
:100A2000141B50E0FA013197E730F10520F4EC5C3B
:100A3000FF4F0C94B71C10922F0210922E021092AE
:100A40002D0210922C02DECF80912E0290912F0267
:100A5000019711F00E944D02D0932F02C0932E02F5
:100A6000612F70E05DC0612F70E071956195710933
:100A7000882777FD8095982F0E94201B06C0612F44
:100A800070E080E090E00E941E1B6093280270934B
:100A9000290280932A0290932B02B4CFB0922F02A6
:100AA000A0922E02612F70E07195619571098827DF
:100AB00077FD8095982F0E94201B0AC0B0922F02CC
:100AC000A0922E02612F70E080E090E00E941E1B39
:100AD000609328027093290280932A0290932B023C
:100AE000909226020E949E15609322027093230228
:100AF00080932402909325020E944D0283CF80911F
:100B00002E0290912F02019711F00E944D02D09376
:100B10002F02C0932E02612F70E0719561957109CB
:100B200070932D0260932C026DCF99278734910525
:100B300009F4E4C024F58732910509F459C09CF406
:100B40008731910509F447C08F31910509F44BC0F5
:100B50000F9709F057CF8BEE91E00E946A0BAB0123
:100B6000BC0181E895C18733910509F477C08F33C3
:100B7000910509F48EC08F9709F044CF54C0873691
:100B8000910509F447C16CF48735910509F42BC12F
:100B90008F35910509F418C18F34910509F032CFD2
:100BA000DAC08737910509F438C13CF48F369105D6
:100BB00009F028CF1092270232C18F37910509F42E
:100BC00031C18738910509F01DCFE0916401F091A2
:100BD0006501099517CF8BEE91E00E94700BAB0178
:100BE000BC0182E855C18BEE91E00E94760B84CF68
:100BF000C0900A01D0900B01E0900C01F0900D0123
:100C000020E030E046E453E4C701B6010E94811AB7
:100C100087FFF8CE20E030E040E85FE3C701B6018F
:100C20000E94BB1950C0C0900601D0900701E0900F
:100C30000801F090090120E030E046E453E4C701E8
:100C4000B6010E94811A87FFDDCE20E030E040E847
:100C50005FE3C701B6010E94BB196AC0C0903502AC
:100C6000D0903602E0903702F090380220E030E079
:100C700046EC52E4C701B6010E94811A87FFC2CE3A
:100C800020E030E040E85FE3C701B6010E94BB19F5
:100C90007CC0C0900A01D0900B01E0900C01F09054
:100CA0000D0120E030E0A901C701B6010E94F51B4B
:100CB00018160CF0A7CE20E030E040E85FE3C70153
:100CC000B6010E94BA19AB01BC0140930A015093CE
:100CD0000B0160930C0170930D01C0903502D09010
:100CE0003602E0903702F090380200910601109130
:100CF0000701209108013091090161C0C0900601EF
:100D0000D0900701E0900801F090090120E030E068
:100D1000A901C701B6010E94F51B18160CF072CE8E
:100D200020E030E040E85FE3C701B6010E94BA1955
:100D30008B019C0160930601709307018093080169
:100D400090930901C0903502D0903602E0903702AE
:100D5000F09038022CC0C0903502D0903602E0905E
:100D60003702F090380220E030E0A901C701B60157
:100D70000E94F51B18160CF045CE20E030E040E84C
:100D80005FE3C701B6010E94BA196B017C01609351
:100D900035027093360280933702909338020091A7
:100DA000060110910701209108013091090140913D
:100DB0000A0150910B0160910C0170910D0189E7BE
:100DC00091E00E94D3081ECE20E030E040E05FE3D7
:100DD0006091390270913A0280913B0290913C02FD
:100DE0000E94BA190EC020E030E040E05FE360915D
:100DF000390270913A0280913B0290913C020E942C
:100E0000BB196093390270933A0280933B0290932E
:100E10003C02F8CD90922702F5CD809227020E94E5
:100E20007402F0CD40910A0150910B0160910C01C8
:100E300070910D0183E80E94AD044091060150912C
:100E40000701609108017091090184E80E94AD04D6
:100E5000409135025091360260913702709138020C
:100E600085E80E94AD044091390250913A026091A8
:100E70003B0270913C0280E90E94AD046091270220
:100E800070E080E090E00E941E1BAB01BC0181E994
:100E90000E94AD04B7CDDF91CF911F910F91FF90CC
:100EA000EF90DF90CF90BF90AF909F908F9008957C
:100EB0000E94ED040E94B9038BEE91E00E941F0D89
:100EC0000E9492018BEE91E00E946A0B60934902AE
:100ED00070934A0280934B0290934C0282EB91E014
:100EE0000E94B30780912E0290912F0282309105CB
:100EF000A1F08330910541F10197A1F56091450280
:100F00007091460280914702909148020E94ED1A2A
:100F100020912C0230912D0211C0609145027091F8
:100F2000460280914702909148020E94ED1A20915A
:100F30002C0230912D02319521953109AB01B90177
:100F400082E192E00C94DD116091450270914602BD
:100F500080914702909148020E94ED1A82E192E04E
:100F60000C94941208952F923F924F925F926F9239
:100F70007F928F929F92AF92BF92CF92DF92EF9229
:100F8000FF920F931F93CF93DF93CDB7DEB72B97CD
:100F90000FB6F894DEBF0FBECDBF9B878A87DC01FA
:100FA000D896BC91B983B11102C01982E2C00E94E7
:100FB0009E156A837B838C839D83EA85FB8580A154
:100FC00091A1A2A1B3A14A815B816C817D81481B63
:100FD000590B6A0B7B0B84A595A5A6A5B7A5481749
:100FE00059076A077B0708F3028CF38DE02D808098
:100FF0009180A280B380AA85BB855E96ED91FC911D
:101000005F97A501940160817181828193810E9423
:10101000BA192B013C01EA85FB8520893189428977
:1010200053890E94001CAA85BB8594962D913D9101
:101030004D915C9197970E94BB196B017C01EA85E9
:10104000FB8564A375A386A397A324A835A806A946
:1010500017A99101A8010E94F51B18161CF4C101E3
:10106000D80118C0AA85BB85D0968D919D910D9011
:10107000BC91A02D8E839F83A887B9879C01AD0169
:10108000C701B6010E94811A87FF0AC08E819F8125
:10109000A885B985EA85FB8584A395A3A6A3B7A3F4
:1010A000AA85BB851C962D913D914D915C911F9712
:1010B000C301B2010E94001CEA85FB8524A135A171
:1010C00046A157A10E94BB196B017C01AA85BB8573
:1010D00098962D913D914D915C919B97C501B401DE
:1010E0000E94BA19EA85FB85248935894689578982
:1010F0000E94001C9B01AC01C701B6010E94BA19F5
:101100006B017C019101A8010E94F51B1816BCF02F
:10111000AA85BB85D0962C90D097D1963C90D1973C
:10112000D2960C91D297D3961C919101A801B60149
:10113000C7010E94811A87FD02C016018701AA8596
:10114000BB855C96ED91FC915D97C101D8018083D0
:101150009183A283B383EA85FB8580A691A6A2A68C
:10116000B3A68A819B81AC81BD8180A391A3A2A3F8
:10117000B3A389812B960FB6F894DEBF0FBECDBF07
:10118000DF91CF911F910F91FF90EF90DF90CF9063
:10119000BF90AF909F908F907F906F905F904F9097
:1011A0003F902F9008952F923F924F925F926F92AF
:1011B0007F928F929F92AF92BF92CF92DF92EF92E7
:1011C000FF920F931F93CF93DF9300D000D0CDB742
:1011D000DEB71C012A013B014801590120E030E043
:1011E000A901C301B2010E94811A87FD78C020E0E5
:1011F00030E0A901C501B4010E94811A87FD6FC0CA
:1012000020E030E0A901C701B6010E94811A87FDE4
:1012100066C0F1014082518262827382848295822B
:10122000A682B782C086D186E286F38664A575A5BC
:1012300086A597A50E941E1B20E030E04AE754E4F3
:101240000E94851A69837A838B839C83F10144868B
:101250005586668677869B01AC01C501B4010E9464
:10126000001C4B015C01F101608B718B828B938BB5
:1012700029813A814B815C81C701B6010E94851AA0
:101280006B017C01F101648B758B868B978B808D54
:10129000918D019721F5A301920160E070E0CB01EF
:1012A0000E94BA19F1016487758786879787A5011F
:1012B000940160E070E0CB010E94BA19F101608BEB
:1012C000718B828B938BA701960160E070E0CB015C
:1012D0000E94BA19F101648B758B868B978B0F90E6
:1012E0000F900F900F90DF91CF911F910F91FF9072
:1012F000EF90DF90CF90BF90AF909F908F907F90B6
:101300006F905F904F903F902F9008958F929F9293
:10131000AF92BF92CF92DF92EF92FF92CF93DF9383
:10132000EC0116161706ACF56B01EE24D7FCE09421
:10133000FE2CC701B6010E94201B4B015C016CA56D
:101340007DA58EA59FA50E941E1B9B01AC01C5011A
:10135000B4010E94851A4B015C019B01AC016889B4
:1013600079898A899B890E94001C688B798B8A8B7A
:101370009B8BA50194016C897D898E899F890E9430
:10138000851A6C8B7D8B8E8B9F8BCCA6DDA6EEA6F3
:10139000FFA6DF91CF91FF90EF90DF90CF90BF90AD
:1013A000AF909F908F9008952F923F924F925F92AF
:1013B0006F927F928F929F92AF92BF92CF92DF9265
:1013C000EF92FF920F931F93CF93DF93EC016A018B
:1013D0007B0148015901A9019801C701B6010E948A
:1013E000F51B87FF4EC0C8AAD9AAEAAAFBAA8CAAF5
:1013F0009DAAAEAABFAA88AD882309F442C02C8C4E
:101400003D8CF1014080518062807380A501940180
:10141000C301B2010E94F51B181634F4F101808259
:101420009182A282B3820DC0A7019601C301B201CD
:101430000E94811A87FF05C0F101C082D182E28239
:10144000F3828CA09DA0AEA0BFA0CCA8DDA8EEA882
:10145000FFA8A7019601C501B4010E94F51B18164B
:1014600064F0C8A8D9A8EAA8FBA8A7019601C501FD
:10147000B4010E94811A87FF04C0CCA2DDA2EEA2B3
:10148000FFA2DF91CF911F910F91FF90EF90DF901E
:10149000CF90BF90AF909F908F907F906F905F9014
:1014A0004F903F902F9008958F929F92AF92BF924E
:1014B000CF92DF92EF92FF92CF93DF93EC01EC8D0E
:1014C000FD8DC080D180E280F380CCA2DDA2EEA2AF
:1014D000FFA2EA8DFB8D80819181A281B38188A7D3
:1014E00099A7AAA7BBA78CA89DA8AEA8BFA8A5012D
:1014F0009401C701B6010E94F51B181664F088A874
:1015000099A8AAA8BBA8A5019401C701B6010E9489
:10151000811A87FF04C08CA29DA2AEA2BFA2DF9158
:10152000CF91FF90EF90DF90CF90BF90AF909F90C2
:101530008F9008951F93CF93DF93EC0111E06130FA
:10154000710509F010E088AD91E08927181303C0F8
:10155000CE010E94540A18AFDF91CF911F910895D8
:101560000F931F93CF93DF93EC018B0188AD8823FA
:1015700061F1888D998D6817790739F12C853D8542
:101580004E855F8560E070E0CB010E94BA196C87E0
:101590007D878E879F87288939894A895B8960E0A2
:1015A00070E0CB010E94BA19688B798B8A8B9B8B78
:1015B0002C893D894E895F8960E070E0CB010E94F3
:1015C000BA196C8B7D8B8E8B9F8B198F088FDF9157
:1015D000CF911F910F9108954F925F926F927F92DA
:1015E0008F929F92AF92BF92CF92DF92EF92FF9233
:1015F0000F931F93CF93DF9300D000D0CDB7DEB70A
:101600004C0127013801A982BA82CB82DC82FC011D
:10161000558F448F738F628F378F268F10AE10AA2D
:1016200011AA12AA13AA80E090E0AFE7B3E484AB5A
:1016300095ABA6ABB7AB84E690E0A0E0B0E084A7A2
:1016400095A7A6A7B7A76B8D7C8DC4010E94B00A91
:10165000CF88D88CE98CFA8C09811A812B813C8146
:10166000B301A201C4010E94D3080E949E15F40197
:1016700044A455A466A477A464197509860997093A
:1016800060A371A382A393A30F900F900F900F906C
:10169000DF91CF911F910F91FF90EF90DF90CF904E
:1016A000BF90AF909F908F907F906F905F904F9082
:1016B0000895DC01ED91FC910190F081E02D0994F9
:1016C0000895FC0160830895FC0161830895FC0185
:1016D00062830895FC01658976898789908D0895D4
:1016E000FC01618D728D838D948D0895FC01158AA6
:1016F000168A178A108E0895FC0171A360A316A2A2
:101700000895FC01418B528B638B748B0895CF93AA
:10171000DF93EC017E8F6D8F188219821A821EA2D0
:101720001D821E821F82188619861A861B861C86B9
:101730001D861E861F86188A43E353E363E77FE313
:10174000498B5A8B6B8B7C8B1F8E84E190E099A325
:1017500088A38DE492E00E943C0F6D8D7E8D8DE418
:1017600092E00E945F0F6BE670E08DE492E00E94D1
:10177000590B60E070E08DE492E00E94590B61E04B
:101780008DE492E00E94610F6D8D7E8D8DE492E07C
:101790000E945F0F6BE170E08DE492E00E94590BB4
:1017A00060E170E08DE492E00E94590B61E08DE40D
:1017B00092E00E94610F6D8D7E8D8DE492E00E941B
:1017C0005F0F6CE170E08DE492E00E94590B60E0E5
:1017D00070E08DE492E00E94590B61E08DE492E0AC
:1017E0000E94610F0E94AA156AA37BA38CA39DA3EC
:1017F000DF91CF9108952F923F924F925F926F9217
:101800007F928F929F92AF92BF92CF92DF92EF9290
:10181000FF920F931F93CF93DF9300D01F92CDB70A
:10182000DEB79B838A836B0100E010E00C151D0579
:101830000CF0B1C0EA81FB81658D768D8DE492E07C
:101840000E945F0F6BE370E08DE492E00E94590B01
:1018500060E08DE492E00E94610FEA81FB81658D7A
:10186000768D21E030E04EE050E08DE492E00E9481
:10187000530F8DE492E00E94AD0E8DE492E00E9441
:10188000AD0E8DE492E00E94AD0E8DE492E00E94D8
:10189000AD0E8DE492E00E94AD0E8DE492E00E94C8
:1018A000AD0E8DE492E00E94AD0E8DE492E00E94B8
:1018B000AD0E8DE492E00E94AD0EB82E8DE492E064
:1018C0000E94AD0E3B2C212C3101682A792A8DE42F
:1018D00092E00E94AD0EB82E8DE492E00E94AD0E13
:1018E0005B2C412C4201882A992A8DE492E00E94C7
:1018F000AD0E89838DE492E00E94AD0E5C01B301D0
:10190000882777FD8095982F0E94201B9B01AC01B2
:10191000EA81FB8165817681878190850E94BB1970
:10192000EA81FB816583768387839087B40188276A
:1019300077FD8095982F0E94201B9B01AC01EA81C6
:10194000FB8161857285838594850E94BB19EA813C
:10195000FB816187728783879487F980E12CB701C7
:101960006A297B29882777FD8095982F0E94201B64
:101970009B01AC01EA81FB8165857685878590892D
:101980000E94BB19EA81FB81658776878787908BE8
:101990000F5F1F4F4BCFB601882777FD8095982F9B
:1019A0000E94201B6B017C01EA81FB81858196816D
:1019B000A781B085BC01CD019058A70196010E9476
:1019C000851AEA81FB816583768387839087818589
:1019D0009285A385B485BC01CD019058A7019601DD
:1019E0000E94851AEA81FB816187728783879487C9
:1019F00085859685A785B089BC01CD019058A70142
:101A000096010E94851AEA81FB8165877687878720
:101A1000908B0F900F900F90DF91CF911F910F91AE
:101A2000FF90EF90DF90CF90BF90AF909F908F90FE
:101A30007F906F905F904F903F902F9008952F92DE
:101A40003F924F925F926F927F928F929F92AF924E
:101A5000BF92CF92DF92EF92FF920F931F93CF939B
:101A6000DF93EC018EA1882309F497C08F8D882322
:101A7000E9F30E94AA154B015C016D8D7E8D8DE40A
:101A800092E00E945F0F6BE370E08DE492E00E94B1
:101A9000590B60E08DE492E00E94610F6D8D7E8DA8
:101AA00021E030E04EE050E08DE492E00E94530FE0
:101AB0008DE492E00E94AD0E182F8DE492E00E941A
:101AC000AD0EC12CD12CD12EC82AD92A8DE492E09A
:101AD0000E94AD0E8DE492E00E94AD0E8DE492E086
:101AE0000E94AD0E8DE492E00E94AD0E8DE492E076
:101AF0000E94AD0E8DE492E00E94AD0E8DE492E066
:101B00000E94AD0E8DE492E00E94AD0E8DE492E055
:101B10000E94AD0EF82E8DE492E00E94AD0E00E022
:101B200010E01F2D082B192B8DE492E00E94AD0EC2
:101B3000382E8DE492E00E94AD0E7C01B80188271A
:101B400077FD8095982F0E94201B29853A854B852B
:101B50005C850E94BB190E94ED1A2B013C018B0190
:101B600080E090E0932DBC016E297F29882777FDC6
:101B70008095982F0E94201B2D853E854F85588982
:101B80000E94BB190E94ED1A1B012881222329F112
:101B900022243324261A370A20C008EE13E00E94BC
:101BA000AA1528A139A1209FA001219F500D309F87
:101BB000500D11244A01AA2497FCA094BA2CCAA063
:101BC000DBA0ECA0FDA08C0C9D1CAE1CBF1C6815FE
:101BD00079058A059B0518F34CCF8A81882321F06B
:101BE0000027112704191509B601882777FD80956C
:101BF000982F0E94201B20E030E040E856E40E942D
:101C00002E1A9B01AC010E94BB1920E030E44EE784
:101C100055E40E94001C20E030E04EE852E40E94AF
:101C2000851A6B017C018981882321F0F7FAF094F1
:101C3000F7F8F09449885A886B887C888AA19BA120
:101C4000ACA1BDA1A5019401281B390B4A0B5B0B6C
:101C5000CA01B9010E941E1B4B015C01A301920144
:101C600060E070E080E89FE30E94BA19A701960146
:101C70000E94001C6B017C01B801882777FD8095CC
:101C8000982F0E94201B22EE30E04AEF5CE30E9476
:101C9000001CA50194010E94001C20E034E244E7EE
:101CA00059E40E94851A298D3A8D4B8D5C8D0E94D6
:101CB000BB199B01AC01C301B2010E94001C9B0136
:101CC000AC01C701B6010E94BB19698F7A8F8B8F57
:101CD0009C8FB101882777FD8095982F0E94201B4B
:101CE00022EE30E04AEF5CE30E94001CA501940163
:101CF0000E94001C20E034E244E759EC0E94851A5F
:101D00009B01AC016D897E898F89988D0E94BB19DA
:101D10006D8B7E8B8F8B988F0E94AA156AA37BA3F5
:101D20008CA39DA3DF91CF911F910F91FF90EF9016
:101D3000DF90CF90BF90AF909F908F907F906F90EB
:101D40005F904F903F902F90089580917D0290E09A
:101D500020917E02821B9109089520917E0280913C
:101D60007D02281750F4E22FF0E0E158FD4F80810A
:101D700090E02F5F20937E0208958FEF9FEF0895EC
:101D8000E0917E0280917D02E81730F4F0E0E158A6
:101D9000FD4F808190E008958FEF9FEF08950895A3
:101DA000CF92DF92EF92FF920F931F93CF93DF9327
:101DB0007C01CB018A0120915902222389F0EB0199
:101DC0006B01C40ED51ECC15DD0569F06991D701F4
:101DD000ED91FC910190F081E02DC7010995F3CFC1
:101DE000642F0E942D10C801DF91CF911F910F9198
:101DF000FF90EF90DF90CF900895CF93DF931F92E5
:101E0000CDB7DEB76983209159022223D1F020910A
:101E10005A02203240F021E030E0FC01338322837B
:101E200080E090E015C080915B02E82FF0E0E45A7A
:101E3000FD4F998190838F5F80935B0280935A025C
:101E400005C061E0CE0101960E942D1081E090E076
:101E50000F90DF91CF910895FC011382128248EE1A
:101E600053E060E070E044835583668377838AE3C0
:101E700091E091838083089510927E0210927D02FA
:101E800010925B0210925A020C94780F862F413206
:101E900008F040E26FE772E00E94960F10927E0217
:101EA00080937D0208950C94460F81E0809359023F
:101EB00060937C0210925B0210925A0208950C9477
:101EC000550F0F93062F21E040915A026CE572E006
:101ED00080917C020E94DA0F10925B0210925A02EB
:101EE000109259020F9108958DE492E00C942C0FFA
:101EF00010920C0381E080930A031092090361E0C1
:101F000082E10E94F11661E083E10E94F116E9EBA3
:101F1000F0E080818E7F808380818D7F808388E464
:101F20008093B80085E48093BC000895413208F0A6
:101F30003FC090910C039111FCCF91E090930C0362
:101F400020930A032FEF20939F021092E402240FA4
:101F50002093E30290930B0390910B03880F892B3E
:101F600080930B0380910903813041F4109209039F
:101F700080910B038093BB0085EC01C085EE8093BC
:101F8000BC0080910C038130E1F38091E40284175E
:101F900010F44091E40225EE32E0FB01D9018A2FD2
:101FA000821B841718F48D918193F9CF842F0895A3
:101FB00080E008950F93413208F046C090910C03E1
:101FC0009111FCCF92E090930C0300930A039FEFD2
:101FD00090939F021092E4024093E302FB0165EEAE
:101FE00072E0DB019A2F961B941718F491919D9340
:101FF000F9CF10920B0390910B03880F892B8093DC
:102000000B0380910903813041F410920903809100
:102010000B038093BB0085EC01C085EE8093BC0070
:10202000222321F080910C038230E1F380919F0202
:102030008F3F61F080919F02803251F080919F022A
:10204000803341F483E007C081E005C080E003C035
:1020500082E001C084E00F910895613298F42091EC
:102060000C03243089F46093C102FC0183EC92E0FC
:10207000DC012A2F281B261718F421912D93F9CF64
:1020800080E0089581E0089582E0089585ED8093D1
:10209000BC008091BC0084FDFCCF10920C0308951D
:1020A00085EC8093BC0010920C0308951F920F9250
:1020B0000FB60F9211242F933F934F935F936F931B
:1020C0007F938F939F93AF93BF93EF93FF938091F1
:1020D000B900887F803609F49CC068F5883209F41D
:1020E0005BC090F4803109F454C038F4882309F4BB
:1020F000F5C0883009F44DC0F5C0883109F44CC0F2
:10210000803209F45DC0EEC0803409F468C048F440
:10211000803309F455C0883309F0E4C080939F02EE
:10212000A8C0803509F44FC0883509F45DC08834F3
:1021300009F0D8C0D5C0883909F4C6C0A8F48837DA
:1021400009F467C038F4883609F463C0803709F4AD
:1021500060C0C8C0883809F4B7C0803909F45FC0CE
:10216000803809F0BFC05BC0803B09F485C038F4FB
:10217000803A09F466C0883A09F47EC0B3C0803C56
:1021800009F4A6C0883C09F4A3C0883B09F489C0BF
:10219000A9C080910B0310C09091E4028091E302EA
:1021A000981770F5E091E40281E08E0F8093E402CD
:1021B000F0E0EB51FD4F80818093BB0085EC85C042
:1021C00080939F028DC0E091E40281E08E0F8093A6
:1021D000E4028091BB00F0E0EB51FD4F80839091D1
:1021E000E4028091E3026DC0E091E40281E08E0F91
:1021F0008093E4028091BB00F0E0EB51FD4F8083BF
:1022000080910A0381116CC081E08093090384EA04
:1022100060C083E080930C031092A002CFCF809126
:10222000A002803208F050C0E091A00281E08E0F41
:102230008093A0028091BB00F0E0EF55FD4F8083BA
:10224000BDCF8091A002803230F4E091A002F0E096
:10225000EF55FD4F10820E9446106091A00270E081
:10226000E0910503F091060381EA92E0099510924E
:10227000A0020E94501036C084E080930C0310929C
:10228000C2021092C102E0910703F0910803099580
:102290008091C102811105C081E08093C10210923A
:1022A000C302E091C20281E08E0F8093C202F0E08F
:1022B000ED53FD4F80818093BB009091C2028091CD
:1022C000C102981708F47ACF85E88093BC000AC051
:1022D00085EC8093BC0010920C0304C010929F0206
:1022E0000E944610FF91EF91BF91AF919F918F9106
:1022F0007F916F915F914F913F912F910F900FBE02
:102300000F901F90189508956F927F928F929F92D1
:10231000AF92BF92CF92DF92EF92FF920F931F93F3
:10232000CF93DF9300D0CDB7DEB73C01962E842E3D
:10233000590161E0892D5A8379830E94B81661E0C2
:10234000882D0E94B81661E0802F0E94B81661E0C7
:102350008E2D0E94B816F30190827981718382825A
:102360005A815383B582A48206831783E086F1865F
:10237000D386C28660E0892D0E94F11660E0F301E9
:1023800082810E94F11660E0F30186810E94F116BD
:1023900060E0F30180850F900F90DF91CF911F9146
:1023A0000F91FF90EF90DF90CF90BF90AF909F90F4
:1023B0008F907F906F900C94F1164F925F927F9266
:1023C0008F929F92AF92BF92CF92DF92EF92FF9245
:1023D0000F931F93CF93DF93EC014B011616170653
:1023E000ECF06115710529F0919481949108712C9C
:1023F00017C060E088810E94F11660E08A810E9427
:10240000F11660E08E810E94F11660E088850E94DE
:10241000F1161D861C861F861E8676C0772473944F
:102420001416150604F5BA01882777FD8095982FB4
:102430008401222717FD2095322F3F932F931F935E
:102440000F93A12CB12C6501E12CF12C87012FEF0A
:1024500030E040E050E00E9472192B010F900F9085
:102460000F900F9025C04115510509F1BA01882739
:1024700077FD8095982F8401222717FD2095322F14
:102480003F932F931F930F93A12CB12C6501E12C47
:10249000F12C870121E03FEF4FEF5FEF0E947219AF
:1024A0000F900F900F900F9024014B0101C0240159
:1024B000B4018C810E943016B2018A850E943016C8
:1024C00061E0772071F088810E94F11661E08E81D1
:1024D0000E94F11660E08A810E94F11660E0888512
:1024E0000DC08A810E94F11661E088850E94F11674
:1024F00060E088810E94F11660E08E810E94F116F2
:102500009D868C864E865F86DF91CF911F910F91BD
:10251000FF90EF90DF90CF90BF90AF909F908F9003
:102520007F905F904F900895EF92FF920F931F93CB
:10253000CF93DF93EC017B018B0177FF04C0002771
:102540001127061B170BB8018C810E943016B801A9
:102550008A850E9430161E141F0474F461E088817D
:102560000E94F11660E08A810E94F11660E08E817F
:102570000E94F11661E017C060E08881EF2841F009
:102580000E94F11661E08A810E94F11661E007C0A5
:102590000E94F11660E08A810E94F11660E08E814F
:1025A0000E94F11660E088850E94F1161D870C8755
:1025B0001F870E87DF91CF911F910F91FF90EF90B2
:1025C0000895CF93DF93EC018C810E94EA14CE0131
:1025D000DF91CF910C941014CF92DF92EF92FF9283
:1025E000CF93DF9300D000D0CDB7DEB70E94AA15FD
:1025F00069837A838B839C83C980DA80EB80FC803B
:102600008091E3039091E403A091E503B091E60388
:10261000C81AD90AEA0AFB0A8091E703843009F450
:1026200040C0853019F08130E9F413C00E94BE1417
:102630008091DF0380FD16C080910F0390911003FD
:10264000A0E0B0E08C159D05AE05BF0558F481E013
:1026500026C080910D030E942717892B11F585E074
:102660008093E703E091DF03F0E0EE0FFF1FE95EE8
:10267000FC4FD182C08289819A81AB81BC818093D9
:10268000E3039093E403A093E503B093E603809102
:10269000DF038F5F8093DF03843618F082E00E94AF
:1026A00094140F900F900F900F90DF91CF91FF90A7
:1026B000EF90DF90CF900895CF93DF93EC0180915E
:1026C0001503811121C081E0809314038091E703F9
:1026D000843021F08091E8038823B1F0CE010E947C
:1026E00018140E94AA156093E3037093E403809387
:1026F000E5039093E60341E050E06CEE72E18C81DB
:10270000DF91CF910C94CA14DF91CF9108950F936C
:102710001F93CF93DF931F92CDB7DEB78C018AE46E
:1027200091E0F80191838083C80169830E94251498
:102730006981623021F0633021F481E003C080E0E0
:1027400001C08FEFF801848360930D030F90DF9138
:10275000CF911F910F910895CF92DF92EF92FF9248
:10276000CF93DF93EC018091150381112BC08091F1
:10277000E703853011F080E02BC080910D030E94AB
:102780002717892BC1F38FB7F894C090E303D0903B
:10279000E403E090E503F090E6038FBF0E94AA15E2
:1027A0006C197D098E099F09C0900F03D09010030A
:1027B000E12CF12CC616D706E806F906E0F683E010
:1027C0000E94941461E070E0CE010E94481481E000
:1027D000DF91CF91FF90EF90DF90CF900895FC01B3
:1027E0001282138214821582168210861782118635
:1027F0000895FC0182E591E0918380831092140397
:1028000087E193E09093E1038093E00312861282C4
:1028100013821482158216821086178211860895FB
:10282000109214031092160384E08093E703089536
:1028300062E080910D030E94B8161092DF0381E0E0
:102840008093E7031092E80308951092140327E1A0
:1028500033E03093E1032093E00310920E0328E766
:102860003EE13093100320930F032CE930E03093C6
:1028700012032093110322E330E0FC01338322830F
:10288000109215031092130384E08093E7030895D8
:10289000EF92FF921F93CF93DF9310921503209135
:1028A0001603E091E003F091E103222321F0AF0150
:1028B0001092160306C02091DF032093E20347E144
:1028C00053E010E02091E203121728F5212F30E0A9
:1028D000220F331F7F01E20EF31EEA01C20FD31F46
:1028E00028813981269FE001279FD00D369FD00D8A
:1028F0001124DC0112962D913C91139710FF03C017
:102900003195219531092C0F3D1FD70111963C932C
:102910002E931F5FD7CF1092140381E0DF91CF91E8
:102920001F91FF90EF900895CF93C1E0C0931503DE
:1029300084E08093E70380910E038823E9F080917F
:1029400014038823C9F04091DF0350E0440F551F62
:1029500067E173E08091E0039091E1030E94D71C4E
:102960008091DF038093E20310921403C093160357
:102970001092DF03C093E703CF9108958091130372
:10298000882339F08091DF0380FF02C02D9A0895DB
:102990002D9808958230E8F4E82FF0E0EE0FFF1F45
:1029A000E751FC4F71836083813041F08091690071
:1029B0008C7F842B80936900E89A08958091690048
:1029C000440F551F440F551F837F842B809369004C
:1029D000E99A0895823068F4813011F0E89801C0D6
:1029E000E998E82FF0E0EE0FFF1FE751FC4F11824E
:1029F000108208951F920F920FB60F9211242F93F9
:102A00003F934F935F936F937F938F939F93AF9376
:102A1000BF93EF93FF938091E9039091EA03892B91
:102A200029F0E091E903F091EA030995FF91EF9114
:102A3000BF91AF919F918F917F916F915F914F91D6
:102A40003F912F910F900FBE0F901F9018951F92DE
:102A50000F920FB60F9211242F933F934F935F93D2
:102A60006F937F938F939F93AF93BF93EF93FF9356
:102A70008091EB039091EC03892B29F0E091EB031B
:102A8000F091EC030995FF91EF91BF91AF919F9168
:102A90008F917F916F915F914F913F912F910F9007
:102AA0000FBE0F901F9018951F920F920FB60F92A6
:102AB00011242F933F938F939F93AF93BF93809154
:102AC000EE039091EF03A091F003B091F1033091E8
:102AD000ED0323E0230F2D3720F40196A11DB11D36
:102AE00005C026E8230F0296A11DB11D2093ED031A
:102AF0008093EE039093EF03A093F003B093F10360
:102B00008091F2039091F303A091F403B091F50347
:102B10000196A11DB11D8093F2039093F303A0933E
:102B2000F403B093F503BF91AF919F918F913F91C3
:102B30002F910F900FBE0F901F9018952FB7F894FC
:102B40006091EE037091EF038091F0039091F10397
:102B50002FBF08953FB7F8948091F2039091F3034B
:102B6000A091F403B091F50326B5A89B05C02F3FB3
:102B700019F00196A11DB11D3FBF6627782F892F3F
:102B80009A2F620F711D811D911D42E0660F771F04
:102B9000881F991F4A95D1F70895CF92DF92EF923F
:102BA000FF92CF93DF936B017C010E94AA15EB018A
:102BB000C114D104E104F10489F00E94B9190E9402
:102BC000AA156C1B7D0B683E734090F381E0C81A18
:102BD000D108E108F108C851DC4FEACFDF91CF916D
:102BE000FF90EF90DF90CF900895789484B5826045
:102BF00084BD84B5816084BD85B5826085BD85B5A1
:102C0000816085BDEEE6F0E0808181608083E1E84F
:102C1000F0E0108280818260808380818160808387
:102C2000E0E8F0E0808181608083E1EBF0E080818A
:102C300084608083E0EBF0E0808181608083EAE75C
:102C4000F0E08081846080838081826080838081E5
:102C5000816080838081806880831092C1000895A4
:102C60001F93CF93DF93182FEB0161E00E94B816FA
:102C7000209711F460E004C0CF3FD10539F461E042
:102C8000812FDF91CF911F910C94F116E12FF0E08D
:102C9000EC55FF4FE491E330F9F048F4E130B9F03E
:102CA000E230A1F584B5806284BDC8BD34C0E73090
:102CB000E9F0E83019F1E43049F580918000806254
:102CC00080938000D0938B00C0938A0024C084B589
:102CD000806884BDC7BD1FC08091800080688093DC
:102CE0008000D0938900C093880015C08091B00007
:102CF00080688093B000C093B3000DC08091B00095
:102D000080628093B000C093B40005C0C038D10584
:102D10000CF0B5CFAFCFDF91CF911F9108958330E5
:102D200081F028F4813099F08230A1F00895873045
:102D3000A9F08830B9F08430D1F4809180008F7D83
:102D400003C0809180008F7780938000089584B5C0
:102D50008F7702C084B58F7D84BD08958091B000C7
:102D60008F7703C08091B0008F7D8093B00008956D
:102D7000CF93DF9390E0FC01E854FF4F2491FC01D6
:102D8000E453FF4F8491882349F190E0880F991F05
:102D9000FC01EC50FF4FA591B49186519F4FFC016F
:102DA000C591D4919FB7611108C0F8948C9120957A
:102DB00082238C93888182230AC0623051F4F89474
:102DC0008C91322F309583238C938881822B88833A
:102DD00004C0F8948C91822B8C939FBFDF91CF918C
:102DE00008950F931F93CF93DF931F92CDB7DEB754
:102DF000282F30E0F901EC55FF4F8491F901E85498
:102E0000FF4F1491F901E453FF4F04910023C9F0DF
:102E1000882321F069830E948F166981E02FF0E0FA
:102E2000EE0FFF1FE651FF4FA591B4919FB7F894A5
:102E30008C91611103C01095812301C0812B8C936B
:102E40009FBF0F90DF91CF911F910F910895CF9366
:102E5000DF93282F30E0F901EC55FF4F8491F90101
:102E6000E854FF4FD491F901E453FF4FC491CC23B0
:102E700091F081110E948F16EC2FF0E0EE0FFF1FF2
:102E8000E052FF4FA591B4912C912D2381E090E069
:102E900021F480E002C080E090E0DF91CF910895BE
:102EA000FC01818D228D90E0805C9F4F821B9109F7
:102EB0008F7399270895FC01918D828D981731F0B9
:102EC000828DE80FF11D858D90E008958FEF9FEFC3
:102ED0000895FC01918D828D981761F0828DDF013C
:102EE000A80FB11D5D968C91928D9F5F9F73928FFD
:102EF00090E008958FEF9FEF08958DEE98E1892B74
:102F000049F080E090E0892B29F00E94ED188111B2
:102F10000C9400000895FC01848DDF01A80FB11D01
:102F2000A35ABF4F2C91848D90E001968F739927FF
:102F3000848FA689B7892C93A089B1898C918064EC
:102F40008C93938D848D981306C00288F389E02DAD
:102F500080818F7D80830895CF93DF93EC01888DEE
:102F60008823C9F0EA89FB89808185FD05C0A8898D
:102F7000B9898C9186FD0FC00FB607FCF5CF808113
:102F800085FFF2CFA889B9898C9185FFEDCFCE015D
:102F90000E948B17E7CFDF91CF910895CF92DF92F8
:102FA000FF920F931F93CF93DF931F92CDB7DEB79E
:102FB0006C0181E0D60158968C9358975B969C9152
:102FC0005B975C968C915C97981307C05096ED9137
:102FD000FC915197808185FD2EC0F601038D10E094
:102FE0000F5F1F4F0F731127F02EF601848DF8121B
:102FF00011C00FB607FCF9CFD6015096ED91FC91A8
:103000005197808185FFF1CFC60169830E948B179C
:103010006981EBCF838DE80FF11DE35AFF4F608389
:10302000D6015B960C935B975296ED91FC9153976A
:10303000808180620CC0D6015696ED91FC91579725
:1030400060835096ED91FC915197808180648083DC
:1030500081E090E00F90DF91CF911F910F91FF9051
:10306000DF90CF900895BF92CF92DF92EF92FF92C0
:10307000CF93DF93EC016A017B01B22EE889F989D5
:1030800082E08083411581EE580761057105A1F04A
:1030900060E079E08DE390E0A70196010E94761C44
:1030A0002150310941095109569547953795279582
:1030B000211580E1380798F0E889F989108260E8E5
:1030C00074E88EE190E0A70196010E94761C2150E1
:1030D0003109410951095695479537952795EC8552
:1030E000FD853083EE85FF852083188EEC89FD8970
:1030F000B082EA89FB89808180618083EA89FB89CB
:10310000808188608083EA89FB89808180688083F0
:10311000EA89FB8980818F7D8083DF91CF91FF9049
:10312000EF90DF90CF90BF9008951F920F920FB64F
:103130000F9211242F938F939F93EF93FF93E0911E
:103140000604F09107048081E0910C04F0910D04D5
:1031500082FD12C0908180910F048F5F8F73209148
:103160001004821751F0E0910F04F0E0EA50FC4F98
:10317000958F80930F0401C08081FF91EF919F9103
:103180008F912F910F900FBE0F901F9018951F9247
:103190000F920FB60F9211242F933F934F935F938B
:1031A0006F937F938F939F93AF93BF93EF93FF930F
:1031B00086EF93E00E948B17FF91EF91BF91AF9143
:1031C0009F918F917F916F915F914F913F912F913F
:1031D0000F900FBE0F901F90189586EF93E00E94FE
:1031E000501721E0892B09F420E0822F08951092D6
:1031F000F9031092F80388EE93E0A0E0B0E080932A
:10320000FA039093FB03A093FC03B093FD0388E5BE
:1032100091E09093F7038093F60385EC90E0909310
:1032200003048093020484EC90E09093050480935F
:10323000040480EC90E0909307048093060481ECF2
:1032400090E0909309048093080482EC90E09093BE
:103250000B0480930A0486EC90E090930D04809315
:103260000C0410920F04109210041092110410928A
:103270001204089508950E94F5150E943A190E94BB
:103280001303CDE7D7E10E9458072097E1F30E948E
:103290007D17F9CFCF92DF92EF92FF920F931F939A
:1032A000CF93DF936C017A01EB01E60EF71E00E08D
:1032B00010E0CE15DF0561F06991D601ED91FC912A
:1032C0000190F081E02DC6010995080F191FF1CF7B
:1032D000C801DF91CF911F910F91FF90EF90DF9088
:1032E000CF9008954F925F926F927F92AF92BF926C
:1032F000CF92DF92EF92FF920F931F93CF93DF93C2
:10330000CDB7DEB729013A01621B730B840B950B15
:1033100029893A894B895C892A193B094C095D093D
:10332000298B3A8B4B8B5C8B9B01AC0169897A8929
:103330008B899C890E94661CE418F5080609170908
:10334000A80197010E94981C2A0D3B1D4C1D5D1D74
:10335000CA01B901DF91CF911F910F91FF90EF90BA
:10336000DF90CF90BF90AF907F906F905F904F9025
:10337000089508955058BB27AA270ED0FCC1EDD15F
:1033800030F0F2D120F031F49F3F11F41EF4BDC1B2
:103390000EF4E095E7FBB3C1E92FFED180F3BA1735
:1033A000620773078407950718F071F49EF516C23B
:1033B0000EF4E0950B2EBA2FA02D0B01B901900150
:1033C0000C01CA01A0011124FF27591B99F0593F94
:1033D00050F4503E68F11A16F040A22F232F342FDC
:1033E0004427585FF3CF469537952795A795F0402A
:1033F0005395C9F77EF41F16BA0B620B730B840B3F
:10340000BAF09150A1F0FF0FBB1F661F771F881FF6
:10341000C2F70EC0BA0F621F731F841F48F487954E
:1034200077956795B795F7959E3F08F0B3CF93953D
:10343000880F08F09927EE0F9795879508958DD1FD
:1034400058F080E891E009F49EEF8ED128F040E832
:1034500051E059F45EEF09C058C1C0C1E92FE078CE
:103460009BD168F3092E052AC1F3261737074807B1
:10347000590738F00E2E07F8E02569F0E025E064E2
:103480000AC0EF6307F8009407FADB01B9019D0158
:10349000DC01CA01AD01EF9347D06DD10AD05F9135
:1034A000552331F02BED3FE049E450FD49EC63CF6B
:1034B0000895DF93DD27B92FBF7740E85FE3161645
:1034C000170648075B0710F4D92F93D19F938F936A
:1034D0007F936F93F8D1E6E7F0E01AD14CD12F91AA
:1034E0003F914F915F9198D1DD2349F09058A2EA26
:1034F0002AED3FE049EC5FE3D0785D274DDFDF91B7
:103500003AC1D9D008F481E008950CD034C12CD14F
:1035100040F023D130F021F45F3F19F0F0C0511199
:103520005EC1F3C039D198F39923C9F35523B1F3A0
:10353000951B550BBB27AA2762177307840738F022
:103540009F5F5F4F220F331F441FAA1FA9F333D081
:103550000E2E3AF0E0E830D091505040E695001C35
:10356000CAF729D0FE2F27D0660F771F881FBB1FF1
:10357000261737074807AB07B0E809F0BB0B802DCB
:10358000BF01FF2793585F4F2AF09E3F510568F017
:10359000B6C025C15F3FECF3983EDCF38695779586
:1035A0006795B795F7959F5FC9F7880F911D969519
:1035B000879597F90895E1E0660F771F881FBB1F75
:1035C000621773078407BA0720F0621B730B840B22
:1035D000BA0BEE1F88F7E095089504D06894B111F6
:1035E000FEC00895E1D088F09F5790F0B92F992739
:1035F000B751A0F0D1F0660F771F881F991F1AF0FE
:10360000BA95C9F712C0B13081F0E8D0B1E00895A1
:10361000E5C0672F782F8827B85F39F0B93FCCF322
:10362000869577956795B395D9F73EF490958095F3
:10363000709561957F4F8F4F9F4F0895E89409C013
:1036400097FB3EF490958095709561957F4F8F4FD5
:103650009F4F9923A9F0F92F96E9BB279395F695EB
:10366000879577956795B795F111F8CFFAF4BB0F69
:1036700011F460FF1BC06F5F7F4F8F4F9F4F16C0CD
:10368000882311F096E911C0772321F09EE8872F57
:10369000762F05C0662371F096E8862F70E060E013
:1036A0002AF09A95660F771F881FDAF7880F96958C
:1036B000879597F90895990F0008550FAA0BE0E830
:1036C000FEEF16161706E807F907C0F012161306E4
:1036D000E407F50798F0621B730B840B950B39F424
:1036E0000A2661F0232B242B252B21F408950A268A
:1036F00009F4A140A6958FEF811D811D089597F9CA
:103700009F6780E870E060E008959FEF80EC089587
:10371000DF93CF931F930F93FF92EF92DF927B0182
:103720008C01689405C0DA2EEF0176D0FE01E89492
:10373000A5912591359145915591AEF3EF012CDE80
:10374000FE019701A801DA9479F7DF90EF90FF90DE
:103750000F911F91CF91DF91089500240A941616BE
:10376000170618060906089500240A94121613066F
:10377000140605060895092E0394000C11F48823FD
:1037800052F0BB0F40F4BF2B11F460FF04C06F5F19
:103790007F4F8F4F9F4F089557FD9058440F551FEF
:1037A00059F05F3F71F04795880F97FB991F61F0C3
:1037B0009F3F79F087950895121613061406551F3A
:1037C000F2CF4695F1DF08C0161617061806991FA6
:1037D000F1CF86957105610508940895E894BB279B
:1037E00066277727CB0197F9089565DF08F48FEFF7
:1037F00008959B01AC0160E070E080E89FE385CE16
:103800000BD0B9CFAADF28F0AFDF18F0952309F06D
:1038100076CF7BCF1124E3CFBFDFA0F3959FD1F309
:10382000950F50E0551F629FF001729FBB27F00D6E
:10383000B11D639FAA27F00DB11DAA1F649F6627C3
:10384000B00DA11D661F829F2227B00DA11D621F12
:10385000739FB00DA11D621F839FA00D611D221FCC
:10386000749F3327A00D611D231F849F600D211DB0
:10387000822F762F6A2F11249F5750408AF0E1F053
:1038800088234AF0EE0FFF1FBB1F661F771F881F9C
:1038900091505040A9F79E3F510570F030CF9FCF17
:1038A0005F3FECF3983EDCF3869577956795B79587
:1038B000F795E7959F5FC1F7FE2B880F911D9695B1
:1038C000879597F908959B01AC019ACFDB018F93FF
:1038D0009F930E94BD1CBF91AF91A29F800D911D2F
:1038E000A39F900DB29F900D11240895A1E21A2E6E
:1038F000AA1BBB1BFD010DC0AA1FBB1FEE1FFF1F94
:10390000A217B307E407F50720F0A21BB30BE40BE3
:10391000F50B661F771F881F991F1A9469F760952A
:103920007095809590959B01AC01BD01CF010895E4
:10393000052E97FB1EF400940E94AF1C57FD07D084
:103940000E94761C07FC03D04EF40C94AF1C5095DB
:103950004095309521953F4F4F4F5F4F089590957B
:103960008095709561957F4F8F4F9F4F0895EE0F13
:10397000FF1F0590F491E02D09940E94C81CA59F9B
:10398000900DB49F900DA49F800D911D112408955A
:10399000A29FB001B39FC001A39F700D811D112490
:1039A000911DB29F700D811D1124911D0895FB0181
:1039B000DC0102C001900D9241505040D8F70895AB
:0439C000F894FFCFA9
:1039C40001000000E803000020410000484202001A
:1039D400000000000000FEFF0000EF132E012E0186
:1039E400340114011A01000002000000000000006C
:1039F400FEFF0000EF1300000000FD0ED00EA50E28
:103A0400AD0EC00ECF0E000000005C13E1120000EA
:103A14000000EF1300000000CE174A195017691771
:043A24005B17AC1769
:00000001FF
